{
  "contractName": "P2pep",
  "abi": [
    {
      "constant": true,
      "inputs": [],
      "name": "owner",
      "outputs": [
        {
          "name": "",
          "type": "address"
        }
      ],
      "payable": false,
      "stateMutability": "view",
      "type": "function"
    },
    {
      "inputs": [],
      "payable": false,
      "stateMutability": "nonpayable",
      "type": "constructor"
    },
    {
      "constant": false,
      "inputs": [
        {
          "name": "name",
          "type": "string"
        }
      ],
      "name": "addConsumer",
      "outputs": [],
      "payable": false,
      "stateMutability": "nonpayable",
      "type": "function"
    },
    {
      "constant": false,
      "inputs": [
        {
          "name": "name",
          "type": "string"
        }
      ],
      "name": "addProvider",
      "outputs": [],
      "payable": false,
      "stateMutability": "nonpayable",
      "type": "function"
    }
  ],
  "bytecode": "0x608060405234801561001057600080fd5b50336000806101000a81548173ffffffffffffffffffffffffffffffffffffffff021916908373ffffffffffffffffffffffffffffffffffffffff1602179055506103f7806100606000396000f300608060405260043610610057576000357c0100000000000000000000000000000000000000000000000000000000900463ffffffff1680638da5cb5b1461005c578063afff7966146100b3578063c5d2af021461011c575b600080fd5b34801561006857600080fd5b50610071610185565b604051808273ffffffffffffffffffffffffffffffffffffffff1673ffffffffffffffffffffffffffffffffffffffff16815260200191505060405180910390f35b3480156100bf57600080fd5b5061011a600480360381019080803590602001908201803590602001908080601f01602080910402602001604051908101604052809392919081815260200183838082843782019150505050505091929192905050506101aa565b005b34801561012857600080fd5b50610183600480360381019080803590602001908201803590602001908080601f0160208091040260200160405190810160405280939291908181526020018383808284378201915050505050509192919290505050610268565b005b6000809054906101000a900473ffffffffffffffffffffffffffffffffffffffff1681565b60408051908101604052803373ffffffffffffffffffffffffffffffffffffffff16815260200182815250600160008073ffffffffffffffffffffffffffffffffffffffff16815260200190815260200160002060008201518160000160006101000a81548173ffffffffffffffffffffffffffffffffffffffff021916908373ffffffffffffffffffffffffffffffffffffffff1602179055506020820151816001019080519060200190610261929190610326565b5090505050565b60408051908101604052803373ffffffffffffffffffffffffffffffffffffffff16815260200182815250600160008073ffffffffffffffffffffffffffffffffffffffff16815260200190815260200160002060008201518160000160006101000a81548173ffffffffffffffffffffffffffffffffffffffff021916908373ffffffffffffffffffffffffffffffffffffffff160217905550602082015181600101908051906020019061031f929190610326565b5090505050565b828054600181600116156101000203166002900490600052602060002090601f016020900481019282601f1061036757805160ff1916838001178555610395565b82800160010185558215610395579182015b82811115610394578251825591602001919060010190610379565b5b5090506103a291906103a6565b5090565b6103c891905b808211156103c45760008160009055506001016103ac565b5090565b905600a165627a7a7230582081b3bbfe1ea67feda14cd521a0ddea4aa91d9f93a00b14b7b5a297061bf4d2820029",
  "source": "pragma solidity ^0.4.23;\r\n\r\ncontract P2pep {\r\n\r\n  address public owner;\r\n  modifier restricted() {\r\n    if (msg.sender == owner) _;\r\n  }\r\n\r\n  struct Consumer {\r\n    address consumerId;\r\n    string consumerName;\r\n  }\r\n\r\n  struct Provider {\r\n    string providerId;\r\n    string providerName;\r\n    uint32 totalKilowatts;\r\n    uint32 rating;\r\n    mapping( uint32 => Consumer ) consumers;\r\n  }\r\n\r\n  mapping( address => Consumer ) consumers;\r\n  mapping( address => Provider ) providers;\r\n\r\n  constructor() public {\r\n      owner = msg.sender;\r\n  }\r\n\r\n  function addConsumer(string name) public {\r\n    consumers[0] = Consumer(msg.sender, name);\r\n  }\r\n  function addProvider(string name) public {\r\n    consumers[0] = Consumer(msg.sender, name);\r\n  }\r\n\r\n  \r\n\r\n}",
  "sourcePath": "E:\\crypto\\liberland\\liberaton\\P2PEP\\src\\contracts\\P2pep.sol",
  "compiler": {
    "name": "solc",
    "version": "0.4.24+commit.e67f0147.Emscripten.clang"
  },
  "schemaVersion": "2.0.1",
  "updatedAt": "2018-11-08T20:09:40.820Z"
}