{
  "contractName": "P2pep",
  "abi": [
    {
      "constant": true,
      "inputs": [],
      "name": "owner",
      "outputs": [
        {
          "name": "",
          "type": "address"
        }
      ],
      "payable": false,
      "stateMutability": "view",
      "type": "function"
    },
    {
      "inputs": [],
      "payable": false,
      "stateMutability": "nonpayable",
      "type": "constructor"
    },
    {
      "anonymous": false,
      "inputs": [
        {
          "indexed": true,
          "name": "consumerAddress",
          "type": "address"
        }
      ],
      "name": "consumerAddedEvent",
      "type": "event"
    },
    {
      "anonymous": false,
      "inputs": [
        {
          "indexed": true,
          "name": "providerAddress",
          "type": "address"
        }
      ],
      "name": "providerAddedEvent",
      "type": "event"
    },
    {
      "anonymous": false,
      "inputs": [
        {
          "indexed": true,
          "name": "providerAddress",
          "type": "address"
        },
        {
          "indexed": true,
          "name": "consumerAddress",
          "type": "address"
        }
      ],
      "name": "startConsumeEvent",
      "type": "event"
    },
    {
      "anonymous": false,
      "inputs": [
        {
          "indexed": true,
          "name": "providerAddress",
          "type": "address"
        },
        {
          "indexed": true,
          "name": "consumerAddress",
          "type": "address"
        }
      ],
      "name": "stopConsumeEvent",
      "type": "event"
    },
    {
      "constant": false,
      "inputs": [
        {
          "name": "_name",
          "type": "string"
        }
      ],
      "name": "addConsumer",
      "outputs": [],
      "payable": false,
      "stateMutability": "nonpayable",
      "type": "function"
    },
    {
      "constant": false,
      "inputs": [
        {
          "name": "_name",
          "type": "string"
        },
        {
          "name": "_totalKW",
          "type": "uint32"
        },
        {
          "name": "_rating",
          "type": "uint32"
        }
      ],
      "name": "addProvider",
      "outputs": [],
      "payable": false,
      "stateMutability": "nonpayable",
      "type": "function"
    },
    {
      "constant": false,
      "inputs": [
        {
          "name": "_providerAddress",
          "type": "address"
        }
      ],
      "name": "startConsume",
      "outputs": [],
      "payable": true,
      "stateMutability": "payable",
      "type": "function"
    },
    {
      "constant": false,
      "inputs": [
        {
          "name": "_providerAddress",
          "type": "address"
        }
      ],
      "name": "stopConsume",
      "outputs": [],
      "payable": true,
      "stateMutability": "payable",
      "type": "function"
    }
  ],
  "bytecode": "0x608060405234801561001057600080fd5b50336000806101000a81548173ffffffffffffffffffffffffffffffffffffffff021916908373ffffffffffffffffffffffffffffffffffffffff160217905550610dc7806100606000396000f30060806040526004361061006d576000357c0100000000000000000000000000000000000000000000000000000000900463ffffffff1680638da5cb5b14610072578063c5d2af02146100c9578063cb95472014610132578063f0a51cbc14610168578063f3ea8dc7146101f1575b600080fd5b34801561007e57600080fd5b50610087610227565b604051808273ffffffffffffffffffffffffffffffffffffffff1673ffffffffffffffffffffffffffffffffffffffff16815260200191505060405180910390f35b3480156100d557600080fd5b50610130600480360381019080803590602001908201803590602001908080601f016020809104026020016040519081016040528093929190818152602001838380828437820191505050505050919291929050505061024c565b005b610166600480360381019080803573ffffffffffffffffffffffffffffffffffffffff169060200190929190505050610452565b005b34801561017457600080fd5b506101ef600480360381019080803590602001908201803590602001908080601f0160208091040260200160405190810160405280939291908181526020018383808284378201915050505050509192919290803563ffffffff169060200190929190803563ffffffff169060200190929190505050610889565b005b610225600480360381019080803573ffffffffffffffffffffffffffffffffffffffff169060200190929190505050610a8e565b005b6000809054906101000a900473ffffffffffffffffffffffffffffffffffffffff1681565b600160003373ffffffffffffffffffffffffffffffffffffffff1673ffffffffffffffffffffffffffffffffffffffff16815260200190815260200160002060020160009054906101000a900460ff16151515610311576040517f08c379a000000000000000000000000000000000000000000000000000000000815260040180806020018281038252600e8152602001807f616c6c726561647920657869737400000000000000000000000000000000000081525060200191505060405180910390fd5b6060604051908101604052803373ffffffffffffffffffffffffffffffffffffffff16815260200182815260200160011515815250600160003373ffffffffffffffffffffffffffffffffffffffff1673ffffffffffffffffffffffffffffffffffffffff16815260200190815260200160002060008201518160000160006101000a81548173ffffffffffffffffffffffffffffffffffffffff021916908373ffffffffffffffffffffffffffffffffffffffff16021790555060208201518160010190805190602001906103e8929190610cae565b5060408201518160020160006101000a81548160ff0219169083151502179055509050503373ffffffffffffffffffffffffffffffffffffffff167f89be8f661d420281ed32f868aa7e17483ee98ef1bf4f2acad67a530e5bc85c5d60405160405180910390a250565b60003466470de4df8200000290508034101515156104d8576040517f08c379a00000000000000000000000000000000000000000000000000000000081526004018080602001828103825260168152602001807f48657921204e6f7420656e6f756768206574686572210000000000000000000081525060200191505060405180910390fd5b600260008373ffffffffffffffffffffffffffffffffffffffff1673ffffffffffffffffffffffffffffffffffffffff16815260200190815260200160002060020160089054906101000a900460ff16151561053357600080fd5b600260008373ffffffffffffffffffffffffffffffffffffffff1673ffffffffffffffffffffffffffffffffffffffff16815260200190815260200160002060030160003373ffffffffffffffffffffffffffffffffffffffff1673ffffffffffffffffffffffffffffffffffffffff16815260200190815260200160002060020160009054906101000a900460ff161515156105cf57600080fd5b8173ffffffffffffffffffffffffffffffffffffffff166108fc349081150290604051600060405180830381858888f19350505050158015610615573d6000803e3d6000fd5b506060604051908101604052803373ffffffffffffffffffffffffffffffffffffffff168152602001600160003373ffffffffffffffffffffffffffffffffffffffff1673ffffffffffffffffffffffffffffffffffffffff1681526020019081526020016000206001018054600181600116156101000203166002900480601f0160208091040260200160405190810160405280929190818152602001828054600181600116156101000203166002900480156107145780601f106106e957610100808354040283529160200191610714565b820191906000526020600020905b8154815290600101906020018083116106f757829003601f168201915b5050505050815260200160011515815250600260008473ffffffffffffffffffffffffffffffffffffffff1673ffffffffffffffffffffffffffffffffffffffff16815260200190815260200160002060030160003373ffffffffffffffffffffffffffffffffffffffff1673ffffffffffffffffffffffffffffffffffffffff16815260200190815260200160002060008201518160000160006101000a81548173ffffffffffffffffffffffffffffffffffffffff021916908373ffffffffffffffffffffffffffffffffffffffff1602179055506020820151816001019080519060200190610807929190610cae565b5060408201518160020160006101000a81548160ff0219169083151502179055509050503373ffffffffffffffffffffffffffffffffffffffff168273ffffffffffffffffffffffffffffffffffffffff167fae43848bbf852a12221e1ec63216c8fa56144f72bbfc4a41018349e78c3db4c060405160405180910390a35050565b600260003373ffffffffffffffffffffffffffffffffffffffff1673ffffffffffffffffffffffffffffffffffffffff16815260200190815260200160002060020160089054906101000a900460ff161515156108e557600080fd5b60a0604051908101604052803373ffffffffffffffffffffffffffffffffffffffff1681526020018481526020018363ffffffff1681526020018263ffffffff16815260200160011515815250600260003373ffffffffffffffffffffffffffffffffffffffff1673ffffffffffffffffffffffffffffffffffffffff16815260200190815260200160002060008201518160000160006101000a81548173ffffffffffffffffffffffffffffffffffffffff021916908373ffffffffffffffffffffffffffffffffffffffff16021790555060208201518160010190805190602001906109d4929190610cae565b5060408201518160020160006101000a81548163ffffffff021916908363ffffffff16021790555060608201518160020160046101000a81548163ffffffff021916908363ffffffff16021790555060808201518160020160086101000a81548160ff0219169083151502179055509050503373ffffffffffffffffffffffffffffffffffffffff167fa1d38004b4c69d1944119df89f63d5957ab1f917652135cf00d8394c988d20c060405160405180910390a2505050565b600260008273ffffffffffffffffffffffffffffffffffffffff1673ffffffffffffffffffffffffffffffffffffffff16815260200190815260200160002060020160089054906101000a900460ff161515610ae957600080fd5b600260008273ffffffffffffffffffffffffffffffffffffffff1673ffffffffffffffffffffffffffffffffffffffff16815260200190815260200160002060030160003373ffffffffffffffffffffffffffffffffffffffff1673ffffffffffffffffffffffffffffffffffffffff16815260200190815260200160002060020160009054906101000a900460ff161515610b8457600080fd5b600260008273ffffffffffffffffffffffffffffffffffffffff1673ffffffffffffffffffffffffffffffffffffffff16815260200190815260200160002060030160003373ffffffffffffffffffffffffffffffffffffffff1673ffffffffffffffffffffffffffffffffffffffff168152602001908152602001600020600080820160006101000a81549073ffffffffffffffffffffffffffffffffffffffff0219169055600182016000610c3b9190610d2e565b6002820160006101000a81549060ff021916905550503373ffffffffffffffffffffffffffffffffffffffff168173ffffffffffffffffffffffffffffffffffffffff167f2b1d289f8a3ea898fefa63d5653e5519a0614e7245724ec25dce023b0547a8d260405160405180910390a350565b828054600181600116156101000203166002900490600052602060002090601f016020900481019282601f10610cef57805160ff1916838001178555610d1d565b82800160010185558215610d1d579182015b82811115610d1c578251825591602001919060010190610d01565b5b509050610d2a9190610d76565b5090565b50805460018160011615610100020316600290046000825580601f10610d545750610d73565b601f016020900490600052602060002090810190610d729190610d76565b5b50565b610d9891905b80821115610d94576000816000905550600101610d7c565b5090565b905600a165627a7a7230582071ad1607fb5972da8ab9feb0da60d8dcded4132021ec585b927c9751a7977d1b0029",
  "source": "pragma solidity ^0.4.23;\n\ncontract P2pep {\n\n  event consumerAddedEvent (address indexed consumerAddress);\n  event providerAddedEvent (address indexed providerAddress);\n  event startConsumeEvent (address indexed providerAddress, address indexed consumerAddress);\n  event stopConsumeEvent (address indexed providerAddress, address indexed consumerAddress);\n\n\n  address public owner;\n  uint constant priceFactor = 2*(10**16);\n  modifier restricted() {\n    if (msg.sender == owner) _;\n  }\n\n  struct Consumer {\n    address consumerAddress;\n    string consumerName;\n    bool exist;\n  }\n\n  struct Provider {\n    address providerAddress;\n    string providerName;\n    uint32 totalKilowatts;\n    uint32 rating;\n    bool exist;\n    mapping( address => Consumer ) consumers;\n  }\n\n  mapping( address => Consumer ) consumers;\n  mapping( address => Provider ) providers;\n\n  constructor() public {\n      owner = msg.sender;\n  }\n\n  function addConsumer(string _name) public {\n\n    require(!consumers[msg.sender].exist, \"allready exist\");\n\n    consumers[msg.sender] = Consumer(msg.sender, _name, true);\n    emit consumerAddedEvent(msg.sender);\n  }\n\n  function addProvider(string _name, uint32 _totalKW, uint32 _rating) public {\n\n    require(!providers[msg.sender].exist);\n\n    providers[msg.sender] = Provider(msg.sender, _name, _totalKW, _rating, true);\n    emit providerAddedEvent(msg.sender);\n  }\n\n  // this function is called by the consumer\n  function startConsume(address _providerAddress) public payable {\n    uint purchasedDeal = priceFactor * msg.value;\n\n    require(msg.value >= purchasedDeal, \"Hey! Not enough ether!\");\n    require(providers[_providerAddress].exist);\n    require(!providers[_providerAddress].consumers[msg.sender].exist);\n\n    // transfer from the consumer ( the sender ) to the provider\n    _providerAddress.transfer(msg.value);\n    providers[_providerAddress].consumers[msg.sender] = Consumer(msg.sender, consumers[msg.sender].consumerName, true);\n\n    emit startConsumeEvent(_providerAddress, msg.sender);\n  }\n\n    // this function is called by the consumer\n  function stopConsume(address _providerAddress) public payable {\n\n    require(providers[_providerAddress].exist);\n    require(providers[_providerAddress].consumers[msg.sender].exist);\n\n    // remove the consumer from the provider consuemrs list\n    delete providers[_providerAddress].consumers[msg.sender];\n\n    emit stopConsumeEvent(_providerAddress, msg.sender);\n  }\n}",
  "sourcePath": "/Users/adyshimony/Sources/P2PEP/contracts/P2pep.sol",
  "compiler": {
    "name": "solc",
    "version": "0.4.23+commit.124ca40d.Emscripten.clang"
  },
  "schemaVersion": "3.0.0-beta.1",
  "updatedAt": "2018-11-09T03:53:15.539Z"
}